{
  "contractName": "ItemManager",
  "abi": [
    {
      "anonymous": false,
      "inputs": [
        {
          "indexed": true,
          "internalType": "string",
          "name": "message",
          "type": "string"
        }
      ],
      "name": "EventAlive",
      "type": "event"
    },
    {
      "anonymous": false,
      "inputs": [
        {
          "indexed": false,
          "internalType": "uint256",
          "name": "_itemIndex",
          "type": "uint256"
        },
        {
          "indexed": false,
          "internalType": "uint256",
          "name": "_step",
          "type": "uint256"
        },
        {
          "indexed": false,
          "internalType": "address",
          "name": "_itemAddress",
          "type": "address"
        }
      ],
      "name": "SupplyChainStep",
      "type": "event"
    },
    {
      "inputs": [],
      "name": "isOnwer",
      "outputs": [
        {
          "internalType": "address",
          "name": "",
          "type": "address"
        }
      ],
      "stateMutability": "view",
      "type": "function"
    },
    {
      "inputs": [
        {
          "internalType": "uint256",
          "name": "",
          "type": "uint256"
        }
      ],
      "name": "items",
      "outputs": [
        {
          "internalType": "string",
          "name": "_identifier",
          "type": "string"
        },
        {
          "internalType": "uint256",
          "name": "_itemPrice",
          "type": "uint256"
        },
        {
          "internalType": "enum ItemManager.SupplyChainState",
          "name": "_state",
          "type": "uint8"
        },
        {
          "internalType": "contract Item",
          "name": "_item",
          "type": "address"
        }
      ],
      "stateMutability": "view",
      "type": "function"
    },
    {
      "stateMutability": "payable",
      "type": "receive"
    },
    {
      "inputs": [
        {
          "internalType": "string",
          "name": "_identifier",
          "type": "string"
        },
        {
          "internalType": "uint256",
          "name": "_itemPrice",
          "type": "uint256"
        }
      ],
      "name": "createItem",
      "outputs": [],
      "stateMutability": "nonpayable",
      "type": "function"
    },
    {
      "inputs": [
        {
          "internalType": "uint256",
          "name": "_itemIndex",
          "type": "uint256"
        }
      ],
      "name": "triggerPayment",
      "outputs": [],
      "stateMutability": "payable",
      "type": "function"
    },
    {
      "inputs": [
        {
          "internalType": "uint256",
          "name": "_itemIndex",
          "type": "uint256"
        }
      ],
      "name": "triggerDelivery",
      "outputs": [],
      "stateMutability": "nonpayable",
      "type": "function"
    }
  ],
  "bytecode": "0x608060405234801561001057600080fd5b5061190f806100206000396000f3fe608060405260043610620000555760003560e01c8063800fb83f14620000a45780638c55174214620000c45780638e75423814620000f2578063bfb231d21462000122578063cd31831e1462000169576200009f565b366200009f5760405162000069906200097a565b60405180910390207f8ce68368d51bc68664590033a46084426cae583d7e4f19337e11432ad576f04860405160405180910390a2005b600080fd5b620000c26004803603810190620000bc9190620009e0565b62000197565b005b348015620000d157600080fd5b50620000f06004803603810190620000ea919062000b74565b62000375565b005b348015620000ff57600080fd5b506200010a62000537565b60405162000119919062000c1f565b60405180910390f35b3480156200012f57600080fd5b506200014e6004803603810190620001489190620009e0565b62000560565b60405162000160949392919062000dcb565b60405180910390f35b3480156200017657600080fd5b506200019560048036038101906200018f9190620009e0565b6200064d565b005b3460016000838152602001908152602001600020600101541115620001f3576040517f08c379a0000000000000000000000000000000000000000000000000000000008152600401620001ea9062000e6f565b60405180910390fd5b600060028111156200020a576200020962000ce0565b5b6001600083815260200190815260200160002060020160009054906101000a900460ff16600281111562000243576200024262000ce0565b5b1462000286576040517f08c379a00000000000000000000000000000000000000000000000000000000081526004016200027d9062000ee1565b60405180910390fd5b600180600083815260200190815260200160002060020160006101000a81548160ff02191690836002811115620002c257620002c162000ce0565b5b02179055507fa4035636e99f06b7651a604c1019fa4e8779fe68ef27eeb74dff2de348f6199b816001600084815260200190815260200160002060020160009054906101000a900460ff16600281111562000322576200032162000ce0565b5b6001600085815260200190815260200160002060020160019054906101000a900473ffffffffffffffffffffffffffffffffffffffff166040516200036a9392919062000f03565b60405180910390a150565b600030826002546040516200038a9062000861565b620003989392919062000f65565b604051809103906000f080158015620003b5573d6000803e3d6000fd5b5090508060016000600254815260200190815260200160002060020160016101000a81548173ffffffffffffffffffffffffffffffffffffffff021916908373ffffffffffffffffffffffffffffffffffffffff1602179055508260016000600254815260200190815260200160002060000190805190602001906200043d9291906200086f565b508160016000600254815260200190815260200160002060010181905550600060016000600254815260200190815260200160002060020160006101000a81548160ff021916908360028111156200049a576200049962000ce0565b5b02179055507fa4035636e99f06b7651a604c1019fa4e8779fe68ef27eeb74dff2de348f6199b60025460016000600254815260200190815260200160002060020160009054906101000a900460ff166002811115620004fe57620004fd62000ce0565b5b83604051620005109392919062000f03565b60405180910390a1600260008154809291906200052d9062000fd1565b9190505550505050565b60008060009054906101000a900473ffffffffffffffffffffffffffffffffffffffff16905090565b600160205280600052604060002060009150905080600001805462000585906200104d565b80601f0160208091040260200160405190810160405280929190818152602001828054620005b3906200104d565b8015620006045780601f10620005d85761010080835404028352916020019162000604565b820191906000526020600020905b815481529060010190602001808311620005e657829003601f168201915b5050505050908060010154908060020160009054906101000a900460ff16908060020160019054906101000a900473ffffffffffffffffffffffffffffffffffffffff16905084565b3373ffffffffffffffffffffffffffffffffffffffff1660008054906101000a900473ffffffffffffffffffffffffffffffffffffffff1673ffffffffffffffffffffffffffffffffffffffff1614620006de576040517f08c379a0000000000000000000000000000000000000000000000000000000008152600401620006d590620010f8565b60405180910390fd5b60016002811115620006f557620006f462000ce0565b5b6001600083815260200190815260200160002060020160009054906101000a900460ff1660028111156200072e576200072d62000ce0565b5b1462000771576040517f08c379a000000000000000000000000000000000000000000000000000000000815260040162000768906200116a565b60405180910390fd5b60026001600083815260200190815260200160002060020160006101000a81548160ff02191690836002811115620007ae57620007ad62000ce0565b5b02179055507fa4035636e99f06b7651a604c1019fa4e8779fe68ef27eeb74dff2de348f6199b816001600084815260200190815260200160002060020160009054906101000a900460ff1660028111156200080e576200080d62000ce0565b5b6001600085815260200190815260200160002060020160019054906101000a900473ffffffffffffffffffffffffffffffffffffffff16604051620008569392919062000f03565b60405180910390a150565b61074d806200118d83390190565b8280546200087d906200104d565b90600052602060002090601f016020900481019282620008a15760008555620008ed565b82601f10620008bc57805160ff1916838001178555620008ed565b82800160010185558215620008ed579182015b82811115620008ec578251825591602001919060010190620008cf565b5b509050620008fc919062000900565b5090565b5b808211156200091b57600081600090555060010162000901565b5090565b600081905092915050565b7f4f6b204920616d20616c69766500000000000000000000000000000000000000600082015250565b600062000962600d836200091f565b91506200096f826200092a565b600d82019050919050565b6000620009878262000953565b9150819050919050565b6000604051905090565b600080fd5b600080fd5b6000819050919050565b620009ba81620009a5565b8114620009c657600080fd5b50565b600081359050620009da81620009af565b92915050565b600060208284031215620009f957620009f86200099b565b5b600062000a0984828501620009c9565b91505092915050565b600080fd5b600080fd5b6000601f19601f8301169050919050565b7f4e487b7100000000000000000000000000000000000000000000000000000000600052604160045260246000fd5b62000a678262000a1c565b810181811067ffffffffffffffff8211171562000a895762000a8862000a2d565b5b80604052505050565b600062000a9e62000991565b905062000aac828262000a5c565b919050565b600067ffffffffffffffff82111562000acf5762000ace62000a2d565b5b62000ada8262000a1c565b9050602081019050919050565b82818337600083830152505050565b600062000b0d62000b078462000ab1565b62000a92565b90508281526020810184848401111562000b2c5762000b2b62000a17565b5b62000b3984828562000ae7565b509392505050565b600082601f83011262000b595762000b5862000a12565b5b813562000b6b84826020860162000af6565b91505092915050565b6000806040838503121562000b8e5762000b8d6200099b565b5b600083013567ffffffffffffffff81111562000baf5762000bae620009a0565b5b62000bbd8582860162000b41565b925050602062000bd085828601620009c9565b9150509250929050565b600073ffffffffffffffffffffffffffffffffffffffff82169050919050565b600062000c078262000bda565b9050919050565b62000c198162000bfa565b82525050565b600060208201905062000c36600083018462000c0e565b92915050565b600081519050919050565b600082825260208201905092915050565b60005b8381101562000c7857808201518184015260208101905062000c5b565b8381111562000c88576000848401525b50505050565b600062000c9b8262000c3c565b62000ca7818562000c47565b935062000cb981856020860162000c58565b62000cc48162000a1c565b840191505092915050565b62000cda81620009a5565b82525050565b7f4e487b7100000000000000000000000000000000000000000000000000000000600052602160045260246000fd5b6003811062000d235762000d2262000ce0565b5b50565b600081905062000d368262000d0f565b919050565b600062000d488262000d26565b9050919050565b62000d5a8162000d3b565b82525050565b6000819050919050565b600062000d8b62000d8562000d7f8462000bda565b62000d60565b62000bda565b9050919050565b600062000d9f8262000d6a565b9050919050565b600062000db38262000d92565b9050919050565b62000dc58162000da6565b82525050565b6000608082019050818103600083015262000de7818762000c8e565b905062000df8602083018662000ccf565b62000e07604083018562000d4f565b62000e16606083018462000dba565b95945050505050565b7f4f6e6c792066756c6c2070726963652061636365707465640000000000000000600082015250565b600062000e5760188362000c47565b915062000e648262000e1f565b602082019050919050565b6000602082019050818103600083015262000e8a8162000e48565b9050919050565b7f50726f64756374206e6f7420696e20737570706c7920636861696e0000000000600082015250565b600062000ec9601b8362000c47565b915062000ed68262000e91565b602082019050919050565b6000602082019050818103600083015262000efc8162000eba565b9050919050565b600060608201905062000f1a600083018662000ccf565b62000f29602083018562000ccf565b62000f38604083018462000c0e565b949350505050565b600062000f4d8262000d92565b9050919050565b62000f5f8162000f40565b82525050565b600060608201905062000f7c600083018662000f54565b62000f8b602083018562000ccf565b62000f9a604083018462000ccf565b949350505050565b7f4e487b7100000000000000000000000000000000000000000000000000000000600052601160045260246000fd5b600062000fde82620009a5565b91507fffffffffffffffffffffffffffffffffffffffffffffffffffffffffffffffff820362001013576200101262000fa2565b5b600182019050919050565b7f4e487b7100000000000000000000000000000000000000000000000000000000600052602260045260246000fd5b600060028204905060018216806200106657607f821691505b6020821081036200107c576200107b6200101e565b5b50919050565b7f4f7065726174696f6e2064656e6965643a20596f7520617265206e6f7420746860008201527f65206f776e657200000000000000000000000000000000000000000000000000602082015250565b6000620010e060278362000c47565b9150620010ed8262001082565b604082019050919050565b600060208201905081810360008301526200111381620010d1565b9050919050565b7f4974656d206e6f7420696e20737570706c7920636861696e0000000000000000600082015250565b60006200115260188362000c47565b91506200115f826200111a565b602082019050919050565b60006020820190508181036000830152620011858162001143565b905091905056fe608060405234801561001057600080fd5b5060405161074d38038061074d83398181016040528101906100329190610134565b816000819055508060018190555082600360006101000a81548173ffffffffffffffffffffffffffffffffffffffff021916908373ffffffffffffffffffffffffffffffffffffffff160217905550505050610187565b600080fd5b600073ffffffffffffffffffffffffffffffffffffffff82169050919050565b60006100b98261008e565b9050919050565b60006100cb826100ae565b9050919050565b6100db816100c0565b81146100e657600080fd5b50565b6000815190506100f8816100d2565b92915050565b6000819050919050565b610111816100fe565b811461011c57600080fd5b50565b60008151905061012e81610108565b92915050565b60008060006060848603121561014d5761014c610089565b5b600061015b868287016100e9565b935050602061016c8682870161011f565b925050604061017d8682870161011f565b9150509250925092565b6105b7806101966000396000f3fe6080604052600436106100385760003560e01c80632986c0e51461024f5780633c8da5881461027a57806389794d00146102a557610241565b3661024157600060025414610082576040517f08c379a00000000000000000000000000000000000000000000000000000000081526004016100799061033f565b60405180910390fd5b3460005411156100c7576040517f08c379a00000000000000000000000000000000000000000000000000000000081526004016100be906103ab565b60405180910390fd5b34600260008282546100d99190610404565b925050819055506000600360009054906101000a900473ffffffffffffffffffffffffffffffffffffffff1673ffffffffffffffffffffffffffffffffffffffff163460015460405160240161012f9190610469565b6040516020818303038152906040527f800fb83f000000000000000000000000000000000000000000000000000000007bffffffffffffffffffffffffffffffffffffffffffffffffffffffff19166020820180517bffffffffffffffffffffffffffffffffffffffffffffffffffffffff83818316178352505050506040516101b991906104fe565b60006040518083038185875af1925050503d80600081146101f6576040519150601f19603f3d011682016040523d82523d6000602084013e6101fb565b606091505b505090508061023f576040517f08c379a000000000000000000000000000000000000000000000000000000000815260040161023690610561565b60405180910390fd5b005b34801561024d57600080fd5b005b34801561025b57600080fd5b506102646102d0565b6040516102719190610469565b60405180910390f35b34801561028657600080fd5b5061028f6102d6565b60405161029c9190610469565b60405180910390f35b3480156102b157600080fd5b506102ba6102dc565b6040516102c79190610469565b60405180910390f35b60015481565b60005481565b60025481565b600082825260208201905092915050565b7f4974656d206973207061696420616c7265616479000000000000000000000000600082015250565b60006103296014836102e2565b9150610334826102f3565b602082019050919050565b600060208201905081810360008301526103588161031c565b9050919050565b7f4f6e6c792066756c6c207061796d656e7420616c6c6f77656400000000000000600082015250565b60006103956019836102e2565b91506103a08261035f565b602082019050919050565b600060208201905081810360008301526103c481610388565b9050919050565b6000819050919050565b7f4e487b7100000000000000000000000000000000000000000000000000000000600052601160045260246000fd5b600061040f826103cb565b915061041a836103cb565b9250827fffffffffffffffffffffffffffffffffffffffffffffffffffffffffffffffff0382111561044f5761044e6103d5565b5b828201905092915050565b610463816103cb565b82525050565b600060208201905061047e600083018461045a565b92915050565b600081519050919050565b600081905092915050565b60005b838110156104b857808201518184015260208101905061049d565b838111156104c7576000848401525b50505050565b60006104d882610484565b6104e2818561048f565b93506104f281856020860161049a565b80840191505092915050565b600061050a82846104cd565b915081905092915050565b7f5472616e73616374696f6e206e6f742073756363657366756c00000000000000600082015250565b600061054b6019836102e2565b915061055682610515565b602082019050919050565b6000602082019050818103600083015261057a8161053e565b905091905056fea26469706673582212204ce2ab0fcf252ca03d1c3144796becda8cb9f41dc421f43742c8815f2685358e64736f6c634300080d0033a2646970667358221220f18f25c356df7aa69f5dbfe261f0e24b40893120e1076b867d5bed08e3ae1eff64736f6c634300080d0033",
  "immutableReferences": {},
  "source": "pragma solidity ^0.8.0;\n\n/*\n* If we instantiate a contract class for every new Item we have the cons that\n* Ethereum creates a new address for each of them.\n*/\n\nimport \"./Ownable.sol\";\nimport \"./Item.sol\";\n\ncontract ItemManager is Ownable {\n\n    enum SupplyChainState { \n        Created, Paid, Delivered\n        }\n\n    struct S_Item {\n        string _identifier;\n        uint _itemPrice;\n        ItemManager.SupplyChainState _state;\n        Item _item;\n    }\n    \n    mapping(uint => S_Item) public items;\n    uint itemIndex;\n    event SupplyChainStep(uint _itemIndex, uint _step, address _itemAddress);\n    event EventAlive(string indexed message);\n\n    function createItem(string memory _identifier, uint _itemPrice) public {\n        Item _item = new Item(this, _itemPrice, itemIndex);\n        items[itemIndex]._item = _item;\n        items[itemIndex]._identifier = _identifier;\n        items[itemIndex]._itemPrice = _itemPrice;\n        items[itemIndex]._state = ItemManager.SupplyChainState.Created;\n        //we need to cast enum to uint and cast is type(value_to_cast)\n        emit SupplyChainStep(itemIndex, uint(items[itemIndex]._state), address(_item));\n        itemIndex++;\n    }\n\n    function triggerPayment(uint _itemIndex) public payable{\n        require(items[_itemIndex]._itemPrice <= msg.value, \"Only full price accepted\");\n        require(items[_itemIndex]._state == ItemManager.SupplyChainState.Created, \"Product not in supply chain\");\n        items[_itemIndex]._state = ItemManager.SupplyChainState.Paid;\n        emit SupplyChainStep(_itemIndex, uint(items[_itemIndex]._state), address(items[_itemIndex]._item));\n    }\n\n    function triggerDelivery(uint _itemIndex) public onlyOwner {\n        require(items[_itemIndex]._state == SupplyChainState.Paid, \"Item not in supply chain\");\n        items[_itemIndex]._state = SupplyChainState.Delivered;\n        emit SupplyChainStep(_itemIndex, uint(items[_itemIndex]._state), address(items[_itemIndex]._item));\n    }\n\n    receive() external payable {\n        emit EventAlive(\"Ok I am alive\");\n    }\n}",
  "sourcePath": "/Users/danilodughetti/Coding/workspace-blockchain/eth/truffle_tutorial/contracts/ItemManager.sol",
  "compiler": {
    "name": "solc",
    "version": "0.8.13+commit.abaa5c0e.Emscripten.clang"
  },
  "schemaVersion": "3.4.7",
  "updatedAt": "2022-04-18T20:08:43.235Z",
  "devdoc": {
    "kind": "dev",
    "methods": {},
    "version": 1
  },
  "userdoc": {
    "kind": "user",
    "methods": {},
    "version": 1
  }
}