{
  "contractName": "Ownable",
  "abi": [
    {
      "inputs": [],
      "name": "isOnwer",
      "outputs": [
        {
          "internalType": "address",
          "name": "",
          "type": "address"
        }
      ],
      "stateMutability": "view",
      "type": "function"
    }
  ],
  "bytecode": "0x608060405234801561001057600080fd5b5060fc8061001f6000396000f3fe6080604052348015600f57600080fd5b506004361060285760003560e01c80638e75423814602d575b600080fd5b60336047565b604051603e919060ad565b60405180910390f35b60008060009054906101000a900473ffffffffffffffffffffffffffffffffffffffff16905090565b600073ffffffffffffffffffffffffffffffffffffffff82169050919050565b60006099826070565b9050919050565b60a7816090565b82525050565b600060208201905060c0600083018460a0565b9291505056fea2646970667358221220cf748533b84570ffbb9a8f9ac26095063d8ac8315ccd14e9f61d80d60c1f1d9464736f6c634300080d0033",
  "immutableReferences": {},
  "source": "pragma solidity ^0.8.0;\n\ncontract Ownable {\n\n    address payable owner;\n\n    modifier onlyOwner() {\n        require(owner == msg.sender, \"Operation denied: You are not the owner\");\n        _;\n    }\n\n    function isOnwer() public view returns(address) {\n        return owner;\n    }\n\n}",
  "sourcePath": "/Users/danilodughetti/Coding/workspace-blockchain/eth/truffle_tutorial/contracts/Ownable.sol",
  "compiler": {
    "name": "solc",
    "version": "0.8.13+commit.abaa5c0e.Emscripten.clang"
  },
  "schemaVersion": "3.4.7",
  "updatedAt": "2022-04-18T00:03:33.401Z",
  "devdoc": {
    "kind": "dev",
    "methods": {},
    "version": 1
  },
  "userdoc": {
    "kind": "user",
    "methods": {},
    "version": 1
  }
}